{
  "_format": "hh-sol-artifact-1",
  "contractName": "DarthBaterNFT",
  "sourceName": "contracts/DarthBaterNFT.sol",
  "abi": [
    {
      "inputs": [
        {
          "internalType": "string",
          "name": "baseURI",
          "type": "string"
        }
      ],
      "stateMutability": "nonpayable",
      "type": "constructor"
    },
    {
      "inputs": [
        {
          "internalType": "address",
          "name": "sender",
          "type": "address"
        },
        {
          "internalType": "uint256",
          "name": "tokenId",
          "type": "uint256"
        },
        {
          "internalType": "address",
          "name": "owner",
          "type": "address"
        }
      ],
      "name": "ERC721IncorrectOwner",
      "type": "error"
    },
    {
      "inputs": [
        {
          "internalType": "address",
          "name": "operator",
          "type": "address"
        },
        {
          "internalType": "uint256",
          "name": "tokenId",
          "type": "uint256"
        }
      ],
      "name": "ERC721InsufficientApproval",
      "type": "error"
    },
    {
      "inputs": [
        {
          "internalType": "address",
          "name": "approver",
          "type": "address"
        }
      ],
      "name": "ERC721InvalidApprover",
      "type": "error"
    },
    {
      "inputs": [
        {
          "internalType": "address",
          "name": "operator",
          "type": "address"
        }
      ],
      "name": "ERC721InvalidOperator",
      "type": "error"
    },
    {
      "inputs": [
        {
          "internalType": "address",
          "name": "owner",
          "type": "address"
        }
      ],
      "name": "ERC721InvalidOwner",
      "type": "error"
    },
    {
      "inputs": [
        {
          "internalType": "address",
          "name": "receiver",
          "type": "address"
        }
      ],
      "name": "ERC721InvalidReceiver",
      "type": "error"
    },
    {
      "inputs": [
        {
          "internalType": "address",
          "name": "sender",
          "type": "address"
        }
      ],
      "name": "ERC721InvalidSender",
      "type": "error"
    },
    {
      "inputs": [
        {
          "internalType": "uint256",
          "name": "tokenId",
          "type": "uint256"
        }
      ],
      "name": "ERC721NonexistentToken",
      "type": "error"
    },
    {
      "inputs": [
        {
          "internalType": "address",
          "name": "owner",
          "type": "address"
        }
      ],
      "name": "OwnableInvalidOwner",
      "type": "error"
    },
    {
      "inputs": [
        {
          "internalType": "address",
          "name": "account",
          "type": "address"
        }
      ],
      "name": "OwnableUnauthorizedAccount",
      "type": "error"
    },
    {
      "anonymous": false,
      "inputs": [
        {
          "indexed": true,
          "internalType": "address",
          "name": "owner",
          "type": "address"
        },
        {
          "indexed": true,
          "internalType": "address",
          "name": "approved",
          "type": "address"
        },
        {
          "indexed": true,
          "internalType": "uint256",
          "name": "tokenId",
          "type": "uint256"
        }
      ],
      "name": "Approval",
      "type": "event"
    },
    {
      "anonymous": false,
      "inputs": [
        {
          "indexed": true,
          "internalType": "address",
          "name": "owner",
          "type": "address"
        },
        {
          "indexed": true,
          "internalType": "address",
          "name": "operator",
          "type": "address"
        },
        {
          "indexed": false,
          "internalType": "bool",
          "name": "approved",
          "type": "bool"
        }
      ],
      "name": "ApprovalForAll",
      "type": "event"
    },
    {
      "anonymous": false,
      "inputs": [
        {
          "indexed": false,
          "internalType": "uint256",
          "name": "_fromTokenId",
          "type": "uint256"
        },
        {
          "indexed": false,
          "internalType": "uint256",
          "name": "_toTokenId",
          "type": "uint256"
        }
      ],
      "name": "BatchMetadataUpdate",
      "type": "event"
    },
    {
      "anonymous": false,
      "inputs": [
        {
          "indexed": false,
          "internalType": "uint256",
          "name": "_tokenId",
          "type": "uint256"
        }
      ],
      "name": "MetadataUpdate",
      "type": "event"
    },
    {
      "anonymous": false,
      "inputs": [
        {
          "indexed": false,
          "internalType": "address",
          "name": "to",
          "type": "address"
        },
        {
          "indexed": false,
          "internalType": "uint256",
          "name": "tokenId",
          "type": "uint256"
        }
      ],
      "name": "NFTMinted",
      "type": "event"
    },
    {
      "anonymous": false,
      "inputs": [
        {
          "indexed": true,
          "internalType": "address",
          "name": "previousOwner",
          "type": "address"
        },
        {
          "indexed": true,
          "internalType": "address",
          "name": "newOwner",
          "type": "address"
        }
      ],
      "name": "OwnershipTransferred",
      "type": "event"
    },
    {
      "anonymous": false,
      "inputs": [
        {
          "indexed": true,
          "internalType": "address",
          "name": "from",
          "type": "address"
        },
        {
          "indexed": true,
          "internalType": "address",
          "name": "to",
          "type": "address"
        },
        {
          "indexed": true,
          "internalType": "uint256",
          "name": "tokenId",
          "type": "uint256"
        }
      ],
      "name": "Transfer",
      "type": "event"
    },
    {
      "inputs": [
        {
          "internalType": "address",
          "name": "to",
          "type": "address"
        },
        {
          "internalType": "uint256",
          "name": "tokenId",
          "type": "uint256"
        }
      ],
      "name": "approve",
      "outputs": [],
      "stateMutability": "nonpayable",
      "type": "function"
    },
    {
      "inputs": [
        {
          "internalType": "address",
          "name": "owner",
          "type": "address"
        }
      ],
      "name": "balanceOf",
      "outputs": [
        {
          "internalType": "uint256",
          "name": "",
          "type": "uint256"
        }
      ],
      "stateMutability": "view",
      "type": "function"
    },
    {
      "inputs": [
        {
          "internalType": "uint256",
          "name": "tokenId",
          "type": "uint256"
        }
      ],
      "name": "getApproved",
      "outputs": [
        {
          "internalType": "address",
          "name": "",
          "type": "address"
        }
      ],
      "stateMutability": "view",
      "type": "function"
    },
    {
      "inputs": [
        {
          "internalType": "address",
          "name": "owner",
          "type": "address"
        },
        {
          "internalType": "address",
          "name": "operator",
          "type": "address"
        }
      ],
      "name": "isApprovedForAll",
      "outputs": [
        {
          "internalType": "bool",
          "name": "",
          "type": "bool"
        }
      ],
      "stateMutability": "view",
      "type": "function"
    },
    {
      "inputs": [],
      "name": "mint",
      "outputs": [
        {
          "internalType": "uint256",
          "name": "",
          "type": "uint256"
        }
      ],
      "stateMutability": "nonpayable",
      "type": "function"
    },
    {
      "inputs": [
        {
          "internalType": "address",
          "name": "to",
          "type": "address"
        }
      ],
      "name": "mintNFT",
      "outputs": [
        {
          "internalType": "uint256",
          "name": "",
          "type": "uint256"
        }
      ],
      "stateMutability": "nonpayable",
      "type": "function"
    },
    {
      "inputs": [],
      "name": "name",
      "outputs": [
        {
          "internalType": "string",
          "name": "",
          "type": "string"
        }
      ],
      "stateMutability": "view",
      "type": "function"
    },
    {
      "inputs": [],
      "name": "owner",
      "outputs": [
        {
          "internalType": "address",
          "name": "",
          "type": "address"
        }
      ],
      "stateMutability": "view",
      "type": "function"
    },
    {
      "inputs": [
        {
          "internalType": "uint256",
          "name": "tokenId",
          "type": "uint256"
        }
      ],
      "name": "ownerOf",
      "outputs": [
        {
          "internalType": "address",
          "name": "",
          "type": "address"
        }
      ],
      "stateMutability": "view",
      "type": "function"
    },
    {
      "inputs": [],
      "name": "renounceOwnership",
      "outputs": [],
      "stateMutability": "nonpayable",
      "type": "function"
    },
    {
      "inputs": [
        {
          "internalType": "address",
          "name": "from",
          "type": "address"
        },
        {
          "internalType": "address",
          "name": "to",
          "type": "address"
        },
        {
          "internalType": "uint256",
          "name": "tokenId",
          "type": "uint256"
        }
      ],
      "name": "safeTransferFrom",
      "outputs": [],
      "stateMutability": "nonpayable",
      "type": "function"
    },
    {
      "inputs": [
        {
          "internalType": "address",
          "name": "from",
          "type": "address"
        },
        {
          "internalType": "address",
          "name": "to",
          "type": "address"
        },
        {
          "internalType": "uint256",
          "name": "tokenId",
          "type": "uint256"
        },
        {
          "internalType": "bytes",
          "name": "data",
          "type": "bytes"
        }
      ],
      "name": "safeTransferFrom",
      "outputs": [],
      "stateMutability": "nonpayable",
      "type": "function"
    },
    {
      "inputs": [
        {
          "internalType": "address",
          "name": "operator",
          "type": "address"
        },
        {
          "internalType": "bool",
          "name": "approved",
          "type": "bool"
        }
      ],
      "name": "setApprovalForAll",
      "outputs": [],
      "stateMutability": "nonpayable",
      "type": "function"
    },
    {
      "inputs": [
        {
          "internalType": "string",
          "name": "newBaseURI",
          "type": "string"
        }
      ],
      "name": "setBaseURI",
      "outputs": [],
      "stateMutability": "nonpayable",
      "type": "function"
    },
    {
      "inputs": [
        {
          "internalType": "bytes4",
          "name": "interfaceId",
          "type": "bytes4"
        }
      ],
      "name": "supportsInterface",
      "outputs": [
        {
          "internalType": "bool",
          "name": "",
          "type": "bool"
        }
      ],
      "stateMutability": "view",
      "type": "function"
    },
    {
      "inputs": [],
      "name": "symbol",
      "outputs": [
        {
          "internalType": "string",
          "name": "",
          "type": "string"
        }
      ],
      "stateMutability": "view",
      "type": "function"
    },
    {
      "inputs": [
        {
          "internalType": "uint256",
          "name": "tokenId",
          "type": "uint256"
        }
      ],
      "name": "tokenURI",
      "outputs": [
        {
          "internalType": "string",
          "name": "",
          "type": "string"
        }
      ],
      "stateMutability": "view",
      "type": "function"
    },
    {
      "inputs": [
        {
          "internalType": "address",
          "name": "from",
          "type": "address"
        },
        {
          "internalType": "address",
          "name": "to",
          "type": "address"
        },
        {
          "internalType": "uint256",
          "name": "tokenId",
          "type": "uint256"
        }
      ],
      "name": "transferFrom",
      "outputs": [],
      "stateMutability": "nonpayable",
      "type": "function"
    },
    {
      "inputs": [
        {
          "internalType": "address",
          "name": "newOwner",
          "type": "address"
        }
      ],
      "name": "transferOwnership",
      "outputs": [],
      "stateMutability": "nonpayable",
      "type": "function"
    }
  ],
  "bytecode": "0x60806040523480156200001157600080fd5b50604051620032a8380380620032a88339818101604052810190620000379190620003c3565b336040518060400160405280600781526020017f534841434b4552000000000000000000000000000000000000000000000000008152506040518060400160405280600481526020017f53484b52000000000000000000000000000000000000000000000000000000008152508160009081620000b591906200065f565b508060019081620000c791906200065f565b505050600073ffffffffffffffffffffffffffffffffffffffff168173ffffffffffffffffffffffffffffffffffffffff16036200013f5760006040517f1e4fbdf70000000000000000000000000000000000000000000000000000000081526004016200013691906200078b565b60405180910390fd5b62000150816200016a60201b60201c565b5080600990816200016291906200065f565b5050620007a8565b6000600760009054906101000a900473ffffffffffffffffffffffffffffffffffffffff16905081600760006101000a81548173ffffffffffffffffffffffffffffffffffffffff021916908373ffffffffffffffffffffffffffffffffffffffff1602179055508173ffffffffffffffffffffffffffffffffffffffff168173ffffffffffffffffffffffffffffffffffffffff167f8be0079c531659141344cd1fd0a4f28419497f9722a3daafe3b4186f6b6457e060405160405180910390a35050565b6000604051905090565b600080fd5b600080fd5b600080fd5b600080fd5b6000601f19601f8301169050919050565b7f4e487b7100000000000000000000000000000000000000000000000000000000600052604160045260246000fd5b62000299826200024e565b810181811067ffffffffffffffff82111715620002bb57620002ba6200025f565b5b80604052505050565b6000620002d062000230565b9050620002de82826200028e565b919050565b600067ffffffffffffffff8211156200030157620003006200025f565b5b6200030c826200024e565b9050602081019050919050565b60005b83811015620003395780820151818401526020810190506200031c565b60008484015250505050565b60006200035c6200035684620002e3565b620002c4565b9050828152602081018484840111156200037b576200037a62000249565b5b6200038884828562000319565b509392505050565b600082601f830112620003a857620003a762000244565b5b8151620003ba84826020860162000345565b91505092915050565b600060208284031215620003dc57620003db6200023a565b5b600082015167ffffffffffffffff811115620003fd57620003fc6200023f565b5b6200040b8482850162000390565b91505092915050565b600081519050919050565b7f4e487b7100000000000000000000000000000000000000000000000000000000600052602260045260246000fd5b600060028204905060018216806200046757607f821691505b6020821081036200047d576200047c6200041f565b5b50919050565b60008190508160005260206000209050919050565b60006020601f8301049050919050565b600082821b905092915050565b600060088302620004e77fffffffffffffffffffffffffffffffffffffffffffffffffffffffffffffffff82620004a8565b620004f38683620004a8565b95508019841693508086168417925050509392505050565b6000819050919050565b6000819050919050565b6000620005406200053a62000534846200050b565b62000515565b6200050b565b9050919050565b6000819050919050565b6200055c836200051f565b620005746200056b8262000547565b848454620004b5565b825550505050565b600090565b6200058b6200057c565b6200059881848462000551565b505050565b5b81811015620005c057620005b460008262000581565b6001810190506200059e565b5050565b601f8211156200060f57620005d98162000483565b620005e48462000498565b81016020851015620005f4578190505b6200060c620006038562000498565b8301826200059d565b50505b505050565b600082821c905092915050565b6000620006346000198460080262000614565b1980831691505092915050565b60006200064f838362000621565b9150826002028217905092915050565b6200066a8262000414565b67ffffffffffffffff8111156200068657620006856200025f565b5b6200069282546200044e565b6200069f828285620005c4565b600060209050601f831160018114620006d75760008415620006c2578287015190505b620006ce858262000641565b8655506200073e565b601f198416620006e78662000483565b60005b828110156200071157848901518255600182019150602085019450602081019050620006ea565b868310156200073157848901516200072d601f89168262000621565b8355505b6001600288020188555050505b505050505050565b600073ffffffffffffffffffffffffffffffffffffffff82169050919050565b6000620007738262000746565b9050919050565b620007858162000766565b82525050565b6000602082019050620007a260008301846200077a565b92915050565b612af080620007b86000396000f3fe608060405234801561001057600080fd5b50600436106101215760003560e01c80636352211e116100ad578063a22cb46511610071578063a22cb46514610308578063b88d4fde14610324578063c87b56dd14610340578063e985e9c514610370578063f2fde38b146103a057610121565b80636352211e1461026257806370a0823114610292578063715018a6146102c25780638da5cb5b146102cc57806395d89b41146102ea57610121565b80631249c58b116100f45780631249c58b146101c057806323b872dd146101de57806342842e0e146101fa57806354ba0f271461021657806355f804b31461024657610121565b806301ffc9a71461012657806306fdde0314610156578063081812fc14610174578063095ea7b3146101a4575b600080fd5b610140600480360381019061013b9190611d86565b6103bc565b60405161014d9190611dce565b60405180910390f35b61015e61041d565b60405161016b9190611e79565b60405180910390f35b61018e60048036038101906101899190611ed1565b6104af565b60405161019b9190611f3f565b60405180910390f35b6101be60048036038101906101b99190611f86565b6104cb565b005b6101c86104e1565b6040516101d59190611fd5565b60405180910390f35b6101f860048036038101906101f39190611ff0565b6104f1565b005b610214600480360381019061020f9190611ff0565b6105f3565b005b610230600480360381019061022b9190612043565b610613565b60405161023d9190611fd5565b60405180910390f35b610260600480360381019061025b91906121a5565b6106af565b005b61027c60048036038101906102779190611ed1565b6106ca565b6040516102899190611f3f565b60405180910390f35b6102ac60048036038101906102a79190612043565b6106dc565b6040516102b99190611fd5565b60405180910390f35b6102ca610796565b005b6102d46107aa565b6040516102e19190611f3f565b60405180910390f35b6102f26107d4565b6040516102ff9190611e79565b60405180910390f35b610322600480360381019061031d919061221a565b610866565b005b61033e600480360381019061033991906122fb565b61087c565b005b61035a60048036038101906103559190611ed1565b6108a1565b6040516103679190611e79565b60405180910390f35b61038a6004803603810190610385919061237e565b6109b4565b6040516103979190611dce565b60405180910390f35b6103ba60048036038101906103b59190612043565b610a48565b005b6000634906490660e01b7bffffffffffffffffffffffffffffffffffffffffffffffffffffffff1916827bffffffffffffffffffffffffffffffffffffffffffffffffffffffff19161480610416575061041582610ace565b5b9050919050565b60606000805461042c906123ed565b80601f0160208091040260200160405190810160405280929190818152602001828054610458906123ed565b80156104a55780601f1061047a576101008083540402835291602001916104a5565b820191906000526020600020905b81548152906001019060200180831161048857829003601f168201915b5050505050905090565b60006104ba82610bb0565b506104c482610c38565b9050919050565b6104dd82826104d8610c75565b610c7d565b5050565b60006104ec33610613565b905090565b600073ffffffffffffffffffffffffffffffffffffffff168273ffffffffffffffffffffffffffffffffffffffff16036105635760006040517f64a0ae9200000000000000000000000000000000000000000000000000000000815260040161055a9190611f3f565b60405180910390fd5b60006105778383610572610c75565b610c8f565b90508373ffffffffffffffffffffffffffffffffffffffff168173ffffffffffffffffffffffffffffffffffffffff16146105ed578382826040517f64283d7b0000000000000000000000000000000000000000000000000000000081526004016105e49392919061241e565b60405180910390fd5b50505050565b61060e8383836040518060200160405280600081525061087c565b505050565b6000806008600081548092919061062990612484565b9190505590506106398382610ea9565b61066d81600961064884610ec7565b6040516020016106599291906125c6565b604051602081830303815290604052611027565b7f4cc0a9c4a99ddc700de1af2c9f916a7cbfdb71f14801ccff94061ad1ef8a8040838260405161069e9291906125f9565b60405180910390a180915050919050565b6106b7611083565b80600990816106c691906127b9565b5050565b60006106d582610bb0565b9050919050565b60008073ffffffffffffffffffffffffffffffffffffffff168273ffffffffffffffffffffffffffffffffffffffff160361074f5760006040517f89c62b640000000000000000000000000000000000000000000000000000000081526004016107469190611f3f565b60405180910390fd5b600360008373ffffffffffffffffffffffffffffffffffffffff1673ffffffffffffffffffffffffffffffffffffffff168152602001908152602001600020549050919050565b61079e611083565b6107a8600061110a565b565b6000600760009054906101000a900473ffffffffffffffffffffffffffffffffffffffff16905090565b6060600180546107e3906123ed565b80601f016020809104026020016040519081016040528092919081815260200182805461080f906123ed565b801561085c5780601f106108315761010080835404028352916020019161085c565b820191906000526020600020905b81548152906001019060200180831161083f57829003601f168201915b5050505050905090565b610878610871610c75565b83836111d0565b5050565b6108878484846104f1565b61089b610892610c75565b8585858561133f565b50505050565b60606108ac82610bb0565b5060006006600084815260200190815260200160002080546108cd906123ed565b80601f01602080910402602001604051908101604052809291908181526020018280546108f9906123ed565b80156109465780601f1061091b57610100808354040283529160200191610946565b820191906000526020600020905b81548152906001019060200180831161092957829003601f168201915b5050505050905060006109576114f0565b9050600081510361096c5781925050506109af565b6000825111156109a157808260405160200161098992919061288b565b604051602081830303815290604052925050506109af565b6109aa84611582565b925050505b919050565b6000600560008473ffffffffffffffffffffffffffffffffffffffff1673ffffffffffffffffffffffffffffffffffffffff16815260200190815260200160002060008373ffffffffffffffffffffffffffffffffffffffff1673ffffffffffffffffffffffffffffffffffffffff16815260200190815260200160002060009054906101000a900460ff16905092915050565b610a50611083565b600073ffffffffffffffffffffffffffffffffffffffff168173ffffffffffffffffffffffffffffffffffffffff1603610ac25760006040517f1e4fbdf7000000000000000000000000000000000000000000000000000000008152600401610ab99190611f3f565b60405180910390fd5b610acb8161110a565b50565b60007f80ac58cd000000000000000000000000000000000000000000000000000000007bffffffffffffffffffffffffffffffffffffffffffffffffffffffff1916827bffffffffffffffffffffffffffffffffffffffffffffffffffffffff19161480610b9957507f5b5e139f000000000000000000000000000000000000000000000000000000007bffffffffffffffffffffffffffffffffffffffffffffffffffffffff1916827bffffffffffffffffffffffffffffffffffffffffffffffffffffffff1916145b80610ba95750610ba8826115eb565b5b9050919050565b600080610bbc83611655565b9050600073ffffffffffffffffffffffffffffffffffffffff168173ffffffffffffffffffffffffffffffffffffffff1603610c2f57826040517f7e273289000000000000000000000000000000000000000000000000000000008152600401610c269190611fd5565b60405180910390fd5b80915050919050565b60006004600083815260200190815260200160002060009054906101000a900473ffffffffffffffffffffffffffffffffffffffff169050919050565b600033905090565b610c8a8383836001611692565b505050565b600080610c9b84611655565b9050600073ffffffffffffffffffffffffffffffffffffffff168373ffffffffffffffffffffffffffffffffffffffff1614610cdd57610cdc818486611857565b5b600073ffffffffffffffffffffffffffffffffffffffff168173ffffffffffffffffffffffffffffffffffffffff1614610d6e57610d1f600085600080611692565b6001600360008373ffffffffffffffffffffffffffffffffffffffff1673ffffffffffffffffffffffffffffffffffffffff168152602001908152602001600020600082825403925050819055505b600073ffffffffffffffffffffffffffffffffffffffff168573ffffffffffffffffffffffffffffffffffffffff1614610df1576001600360008773ffffffffffffffffffffffffffffffffffffffff1673ffffffffffffffffffffffffffffffffffffffff168152602001908152602001600020600082825401925050819055505b846002600086815260200190815260200160002060006101000a81548173ffffffffffffffffffffffffffffffffffffffff021916908373ffffffffffffffffffffffffffffffffffffffff160217905550838573ffffffffffffffffffffffffffffffffffffffff168273ffffffffffffffffffffffffffffffffffffffff167fddf252ad1be2c89b69c2b068fc378daa952ba7f163c4a11628f55a4df523b3ef60405160405180910390a4809150509392505050565b610ec382826040518060200160405280600081525061191b565b5050565b606060008203610f0e576040518060400160405280600181526020017f30000000000000000000000000000000000000000000000000000000000000008152509050611022565b600082905060005b60008214610f40578080610f2990612484565b915050600a82610f3991906128de565b9150610f16565b60008167ffffffffffffffff811115610f5c57610f5b61207a565b5b6040519080825280601f01601f191660200182016040528015610f8e5781602001600182028036833780820191505090505b5090505b6000851461101b57600182610fa7919061290f565b9150600a85610fb69190612943565b6030610fc29190612974565b60f81b818381518110610fd857610fd76129a8565b5b60200101907effffffffffffffffffffffffffffffffffffffffffffffffffffffffffffff1916908160001a905350600a8561101491906128de565b9450610f92565b8093505050505b919050565b8060066000848152602001908152602001600020908161104791906127b9565b507ff8e1a15aba9398e019f0b49df1a4fde98ee17ae345cb5f6b5e2c27f5033e8ce7826040516110779190611fd5565b60405180910390a15050565b61108b610c75565b73ffffffffffffffffffffffffffffffffffffffff166110a96107aa565b73ffffffffffffffffffffffffffffffffffffffff1614611108576110cc610c75565b6040517f118cdaa70000000000000000000000000000000000000000000000000000000081526004016110ff9190611f3f565b60405180910390fd5b565b6000600760009054906101000a900473ffffffffffffffffffffffffffffffffffffffff16905081600760006101000a81548173ffffffffffffffffffffffffffffffffffffffff021916908373ffffffffffffffffffffffffffffffffffffffff1602179055508173ffffffffffffffffffffffffffffffffffffffff168173ffffffffffffffffffffffffffffffffffffffff167f8be0079c531659141344cd1fd0a4f28419497f9722a3daafe3b4186f6b6457e060405160405180910390a35050565b600073ffffffffffffffffffffffffffffffffffffffff168273ffffffffffffffffffffffffffffffffffffffff160361124157816040517f5b08ba180000000000000000000000000000000000000000000000000000000081526004016112389190611f3f565b60405180910390fd5b80600560008573ffffffffffffffffffffffffffffffffffffffff1673ffffffffffffffffffffffffffffffffffffffff16815260200190815260200160002060008473ffffffffffffffffffffffffffffffffffffffff1673ffffffffffffffffffffffffffffffffffffffff16815260200190815260200160002060006101000a81548160ff0219169083151502179055508173ffffffffffffffffffffffffffffffffffffffff168373ffffffffffffffffffffffffffffffffffffffff167f17307eab39ab6107e8899845ad3d59bd9653f200f220920489ca2b5937696c31836040516113329190611dce565b60405180910390a3505050565b60008373ffffffffffffffffffffffffffffffffffffffff163b11156114e9578273ffffffffffffffffffffffffffffffffffffffff1663150b7a02868685856040518563ffffffff1660e01b815260040161139e9493929190612a2c565b6020604051808303816000875af19250505080156113da57506040513d601f19601f820116820180604052508101906113d79190612a8d565b60015b61145e573d806000811461140a576040519150601f19603f3d011682016040523d82523d6000602084013e61140f565b606091505b50600081510361145657836040517f64a0ae9200000000000000000000000000000000000000000000000000000000815260040161144d9190611f3f565b60405180910390fd5b805181602001fd5b63150b7a0260e01b7bffffffffffffffffffffffffffffffffffffffffffffffffffffffff1916817bffffffffffffffffffffffffffffffffffffffffffffffffffffffff1916146114e757836040517f64a0ae920000000000000000000000000000000000000000000000000000000081526004016114de9190611f3f565b60405180910390fd5b505b5050505050565b6060600980546114ff906123ed565b80601f016020809104026020016040519081016040528092919081815260200182805461152b906123ed565b80156115785780601f1061154d57610100808354040283529160200191611578565b820191906000526020600020905b81548152906001019060200180831161155b57829003601f168201915b5050505050905090565b606061158d82610bb0565b5060006115986114f0565b905060008151116115b857604051806020016040528060008152506115e3565b806115c28461193f565b6040516020016115d392919061288b565b6040516020818303038152906040525b915050919050565b60007f01ffc9a7000000000000000000000000000000000000000000000000000000007bffffffffffffffffffffffffffffffffffffffffffffffffffffffff1916827bffffffffffffffffffffffffffffffffffffffffffffffffffffffff1916149050919050565b60006002600083815260200190815260200160002060009054906101000a900473ffffffffffffffffffffffffffffffffffffffff169050919050565b80806116cb5750600073ffffffffffffffffffffffffffffffffffffffff168273ffffffffffffffffffffffffffffffffffffffff1614155b156117ff5760006116db84610bb0565b9050600073ffffffffffffffffffffffffffffffffffffffff168373ffffffffffffffffffffffffffffffffffffffff161415801561174657508273ffffffffffffffffffffffffffffffffffffffff168173ffffffffffffffffffffffffffffffffffffffff1614155b8015611759575061175781846109b4565b155b1561179b57826040517fa9fbf51f0000000000000000000000000000000000000000000000000000000081526004016117929190611f3f565b60405180910390fd5b81156117fd57838573ffffffffffffffffffffffffffffffffffffffff168273ffffffffffffffffffffffffffffffffffffffff167f8c5be1e5ebec7d5bd14f71427d1e84f3dd0314c0f7b2291e5b200ac8c7c3b92560405160405180910390a45b505b836004600085815260200190815260200160002060006101000a81548173ffffffffffffffffffffffffffffffffffffffff021916908373ffffffffffffffffffffffffffffffffffffffff16021790555050505050565b611862838383611a0d565b61191657600073ffffffffffffffffffffffffffffffffffffffff168373ffffffffffffffffffffffffffffffffffffffff16036118d757806040517f7e2732890000000000000000000000000000000000000000000000000000000081526004016118ce9190611fd5565b60405180910390fd5b81816040517f177e802f00000000000000000000000000000000000000000000000000000000815260040161190d9291906125f9565b60405180910390fd5b505050565b6119258383611ace565b61193a611930610c75565b600085858561133f565b505050565b60606000600161194e84611bc7565b01905060008167ffffffffffffffff81111561196d5761196c61207a565b5b6040519080825280601f01601f19166020018201604052801561199f5781602001600182028036833780820191505090505b509050600082602001820190505b600115611a02578080600190039150507f3031323334353637383961626364656600000000000000000000000000000000600a86061a8153600a85816119f6576119f56128af565b5b049450600085036119ad575b819350505050919050565b60008073ffffffffffffffffffffffffffffffffffffffff168373ffffffffffffffffffffffffffffffffffffffff1614158015611ac557508273ffffffffffffffffffffffffffffffffffffffff168473ffffffffffffffffffffffffffffffffffffffff161480611a865750611a8584846109b4565b5b80611ac457508273ffffffffffffffffffffffffffffffffffffffff16611aac83610c38565b73ffffffffffffffffffffffffffffffffffffffff16145b5b90509392505050565b600073ffffffffffffffffffffffffffffffffffffffff168273ffffffffffffffffffffffffffffffffffffffff1603611b405760006040517f64a0ae92000000000000000000000000000000000000000000000000000000008152600401611b379190611f3f565b60405180910390fd5b6000611b4e83836000610c8f565b9050600073ffffffffffffffffffffffffffffffffffffffff168173ffffffffffffffffffffffffffffffffffffffff1614611bc25760006040517f73c6ac6e000000000000000000000000000000000000000000000000000000008152600401611bb99190611f3f565b60405180910390fd5b505050565b600080600090507a184f03e93ff9f4daa797ed6e38ed64bf6a1f0100000000000000008310611c25577a184f03e93ff9f4daa797ed6e38ed64bf6a1f0100000000000000008381611c1b57611c1a6128af565b5b0492506040810190505b6d04ee2d6d415b85acef81000000008310611c62576d04ee2d6d415b85acef81000000008381611c5857611c576128af565b5b0492506020810190505b662386f26fc100008310611c9157662386f26fc100008381611c8757611c866128af565b5b0492506010810190505b6305f5e1008310611cba576305f5e1008381611cb057611caf6128af565b5b0492506008810190505b6127108310611cdf576127108381611cd557611cd46128af565b5b0492506004810190505b60648310611d025760648381611cf857611cf76128af565b5b0492506002810190505b600a8310611d11576001810190505b80915050919050565b6000604051905090565b600080fd5b600080fd5b60007fffffffff0000000000000000000000000000000000000000000000000000000082169050919050565b611d6381611d2e565b8114611d6e57600080fd5b50565b600081359050611d8081611d5a565b92915050565b600060208284031215611d9c57611d9b611d24565b5b6000611daa84828501611d71565b91505092915050565b60008115159050919050565b611dc881611db3565b82525050565b6000602082019050611de36000830184611dbf565b92915050565b600081519050919050565b600082825260208201905092915050565b60005b83811015611e23578082015181840152602081019050611e08565b60008484015250505050565b6000601f19601f8301169050919050565b6000611e4b82611de9565b611e558185611df4565b9350611e65818560208601611e05565b611e6e81611e2f565b840191505092915050565b60006020820190508181036000830152611e938184611e40565b905092915050565b6000819050919050565b611eae81611e9b565b8114611eb957600080fd5b50565b600081359050611ecb81611ea5565b92915050565b600060208284031215611ee757611ee6611d24565b5b6000611ef584828501611ebc565b91505092915050565b600073ffffffffffffffffffffffffffffffffffffffff82169050919050565b6000611f2982611efe565b9050919050565b611f3981611f1e565b82525050565b6000602082019050611f546000830184611f30565b92915050565b611f6381611f1e565b8114611f6e57600080fd5b50565b600081359050611f8081611f5a565b92915050565b60008060408385031215611f9d57611f9c611d24565b5b6000611fab85828601611f71565b9250506020611fbc85828601611ebc565b9150509250929050565b611fcf81611e9b565b82525050565b6000602082019050611fea6000830184611fc6565b92915050565b60008060006060848603121561200957612008611d24565b5b600061201786828701611f71565b935050602061202886828701611f71565b925050604061203986828701611ebc565b9150509250925092565b60006020828403121561205957612058611d24565b5b600061206784828501611f71565b91505092915050565b600080fd5b600080fd5b7f4e487b7100000000000000000000000000000000000000000000000000000000600052604160045260246000fd5b6120b282611e2f565b810181811067ffffffffffffffff821117156120d1576120d061207a565b5b80604052505050565b60006120e4611d1a565b90506120f082826120a9565b919050565b600067ffffffffffffffff8211156121105761210f61207a565b5b61211982611e2f565b9050602081019050919050565b82818337600083830152505050565b6000612148612143846120f5565b6120da565b90508281526020810184848401111561216457612163612075565b5b61216f848285612126565b509392505050565b600082601f83011261218c5761218b612070565b5b813561219c848260208601612135565b91505092915050565b6000602082840312156121bb576121ba611d24565b5b600082013567ffffffffffffffff8111156121d9576121d8611d29565b5b6121e584828501612177565b91505092915050565b6121f781611db3565b811461220257600080fd5b50565b600081359050612214816121ee565b92915050565b6000806040838503121561223157612230611d24565b5b600061223f85828601611f71565b925050602061225085828601612205565b9150509250929050565b600067ffffffffffffffff8211156122755761227461207a565b5b61227e82611e2f565b9050602081019050919050565b600061229e6122998461225a565b6120da565b9050828152602081018484840111156122ba576122b9612075565b5b6122c5848285612126565b509392505050565b600082601f8301126122e2576122e1612070565b5b81356122f284826020860161228b565b91505092915050565b6000806000806080858703121561231557612314611d24565b5b600061232387828801611f71565b945050602061233487828801611f71565b935050604061234587828801611ebc565b925050606085013567ffffffffffffffff81111561236657612365611d29565b5b612372878288016122cd565b91505092959194509250565b6000806040838503121561239557612394611d24565b5b60006123a385828601611f71565b92505060206123b485828601611f71565b9150509250929050565b7f4e487b7100000000000000000000000000000000000000000000000000000000600052602260045260246000fd5b6000600282049050600182168061240557607f821691505b602082108103612418576124176123be565b5b50919050565b60006060820190506124336000830186611f30565b6124406020830185611fc6565b61244d6040830184611f30565b949350505050565b7f4e487b7100000000000000000000000000000000000000000000000000000000600052601160045260246000fd5b600061248f82611e9b565b91507fffffffffffffffffffffffffffffffffffffffffffffffffffffffffffffffff82036124c1576124c0612455565b5b600182019050919050565b600081905092915050565b60008190508160005260206000209050919050565b600081546124f9816123ed565b61250381866124cc565b9450600182166000811461251e576001811461253357612566565b60ff1983168652811515820286019350612566565b61253c856124d7565b60005b8381101561255e5781548189015260018201915060208101905061253f565b838801955050505b50505092915050565b7f2f00000000000000000000000000000000000000000000000000000000000000815250565b60006125a082611de9565b6125aa81856124cc565b93506125ba818560208601611e05565b80840191505092915050565b60006125d282856124ec565b91506125dd8261256f565b6001820191506125ed8284612595565b91508190509392505050565b600060408201905061260e6000830185611f30565b61261b6020830184611fc6565b9392505050565b60006020601f8301049050919050565b600082821b905092915050565b60006008830261266f7fffffffffffffffffffffffffffffffffffffffffffffffffffffffffffffffff82612632565b6126798683612632565b95508019841693508086168417925050509392505050565b6000819050919050565b60006126b66126b16126ac84611e9b565b612691565b611e9b565b9050919050565b6000819050919050565b6126d08361269b565b6126e46126dc826126bd565b84845461263f565b825550505050565b600090565b6126f96126ec565b6127048184846126c7565b505050565b5b818110156127285761271d6000826126f1565b60018101905061270a565b5050565b601f82111561276d5761273e816124d7565b61274784612622565b81016020851015612756578190505b61276a61276285612622565b830182612709565b50505b505050565b600082821c905092915050565b600061279060001984600802612772565b1980831691505092915050565b60006127a9838361277f565b9150826002028217905092915050565b6127c282611de9565b67ffffffffffffffff8111156127db576127da61207a565b5b6127e582546123ed565b6127f082828561272c565b600060209050601f8311600181146128235760008415612811578287015190505b61281b858261279d565b865550612883565b601f198416612831866124d7565b60005b8281101561285957848901518255600182019150602085019450602081019050612834565b868310156128765784890151612872601f89168261277f565b8355505b6001600288020188555050505b505050505050565b60006128978285612595565b91506128a38284612595565b91508190509392505050565b7f4e487b7100000000000000000000000000000000000000000000000000000000600052601260045260246000fd5b60006128e982611e9b565b91506128f483611e9b565b925082612904576129036128af565b5b828204905092915050565b600061291a82611e9b565b915061292583611e9b565b925082820390508181111561293d5761293c612455565b5b92915050565b600061294e82611e9b565b915061295983611e9b565b925082612969576129686128af565b5b828206905092915050565b600061297f82611e9b565b915061298a83611e9b565b92508282019050808211156129a2576129a1612455565b5b92915050565b7f4e487b7100000000000000000000000000000000000000000000000000000000600052603260045260246000fd5b600081519050919050565b600082825260208201905092915050565b60006129fe826129d7565b612a0881856129e2565b9350612a18818560208601611e05565b612a2181611e2f565b840191505092915050565b6000608082019050612a416000830187611f30565b612a4e6020830186611f30565b612a5b6040830185611fc6565b8181036060830152612a6d81846129f3565b905095945050505050565b600081519050612a8781611d5a565b92915050565b600060208284031215612aa357612aa2611d24565b5b6000612ab184828501612a78565b9150509291505056fea26469706673582212205dbeca8557adf8815a503823efb373a25237767fe0d923627b2318bfa363e9a664736f6c63430008140033",
  "linkReferences": {},
  "deployedLinkReferences": {}
}